:0300000002149E49
:0C149E00787FE4F6D8FD7581210214E58A
:0515FC0042016F000038
:07188700D2C212188EC2C28A
:10188E00E4FDFCC3ED9FEC9E50070DBD00010C80E6
:01189E00F257
:01189F002226
:1015A000C2C0C2C1758030D2C27F2C7E0112188E9B
:1015B000C2C27F641E12188ED2C27F2C0E12188EE9
:1015C000C2C27F641E12188ED2C27F2C0E12188ED9
:1015D000C2C27F641E12188E7580381218877580FB
:1015E00008121887758001121887758006121887EF
:0C15F00075800C121887E4900171F02245
:10171100900140EFF0900171E0B410047F10800956
:10172100900171E0B42005E4FF12177AD2C0C2C162
:10173100900140E0F580D2C27F327E00121889907C
:061741000171E004F0223A
:0B16D50090013DEBF0A3EAF0A3E9F068
:1016E000E490016DF090016DE0FFC39420502190D3
:1016F000013DE0FBA3E0FAA3E0F98F8275830012BD
:101700000CF1FF600B12171190016DE004F080D511
:0117100022B6
:10184D00C2C0C2C1758001D2C27F327E0012188E15
:0D185D00C2C27F6412188EE4900171F02267
:0618CA00900171E0FF2215
:10177A00900171E0C394205028EFF0C394105005F3
:10178A00E024808006900171E024B0F580C2C0C2D6
:10179A00C1D2C27F647E0012188EC2C27F32121872
:0217AA008E228D
:10140300E490016EF090016EE004F0E0B4FFF6D2D8
:10141300A0D2A1D2A2D2A390016E740DF0C2A020DB
:10142300A4037401F020A50690016E7402F020A6B7
:101433000690016E7403F0D2A0C2A120A40690010D
:101443006E7404F020A50690016E7405F020A606C4
:1014530090016E7406F0D2A1C2A220A40690016E80
:101463007407F020A50690016E7408F020A606907C
:10147300016E7409F0D2A2C2A320A40690016E7477
:101483000AF020A505E490016EF020A60690016EF7
:0A149300740CF0D2A390016EE0FF8C
:01149D00222C
:1017AC0043F60175F32043F30853F3EFAFF5EF75F0
:1017BC00F004A4ADF47C002DFEEC35F090016FF03C
:0B17CC00A3CEF090016FE0FEA3E0FF51
:0117D70022EF
:1017D80043892053892FC29FD29E438780AB07AA93
:1017E80006E4F9F87F247EF4FDFC121691EFF40468
:0717F800F58DD29CD28E2278
:0818BA008F993099FDC29922BB
:0B17470090013DEBF0A3EAF0A3E9F0F5
:10175200E4FE90013DE0FBA3E0FAA3E0F98E82757E
:101762008300120CF1FF60061218BA0E80E47F0D9E
:081772001218BA7F0A0218BA2E
:0718C2003098FDAF99C298B8
:0118C90022FC
:0B152A00900172EBF0A3EAF0A3E9F0DF
:10153500E4A3F0900175E0C39DEC6480F874809895
:1015450050421218C2EF640D6004EFB40A189001FE
:1015550072E0FBA3E0FAA3E0F9A3E0F5827583004E
:10156500E4120D30801E900172E0FBA3E0FAA3E0C7
:10157500F9A3E0F582758300EF120D30900175E057
:1015850004F080AF900172E0FBA3E0FAA3E0F9AEAE
:0B15950004AF058F828E83E4020D304E
:0D18AD004300252E326620256300256400CF
:10160100602000F8202020202020202020202020E1
:1016110020202020202020202020202020202020C9
:101621002020200042011A00004200F60000430081
:10163100F3FF18AD4400CC0000000042000200009E
:0A1641004200D00E10420000000A23
:03000B0002186A6E
:10186A00C0E0C083C082900003E004F070069000DC
:0D187A0002E004F0B293D082D083D0E032BF
:0D18A00075A882438902E4F58C438810226C
:1017FF001217ACAC06AD07EC120A037B657AAA7917
:10180F00E078BD1208F87B067A0179A478421208B5
:07181F00079000CC020D60F0
:10164C0012184D1217FF90014074FFF0A37418F09C
:10165C00A374AFF09000CCE0FCA3E0FDA3E0FEA3EC
:10166C00E0FF900143120D609001477454F07B0130
:10167C007A0079D2120EE5E4FF12177A7B017A0018
:05168C0079D20216D521
:101303001215A01218A07FB07E041217D89000D037
:10131300E0FEA3E0FFC3900003E09F900002E09E85
:1013230040EB12164C1217ACAC06AD0790011BE054
:1013330025E0FF90011AE033FE74042FF582740058
:101343003EF583ECF0A3EDF090014074FFF0A3743D
:1013530018F0A374B7F074042FF58274003EF5837C
:10136300E0FFA3E0900143CFF0A3EFF07B017A010C
:10137300791C120EE51218C2EF64617069900118AE
:10138300F0A3F0900000E0FEA3E0FF900118E0FC62
:10139300A3E0FDC39FEC9E505690014074FFF0A361
:1013A3007418F0A374B7F0ED25E0FFEC33FE74047A
:1013B3002FF58274003EF583E0FFA3E0900143CF55
:1013C300F0A3EFF07B017A01791C120EE57B017A21
:1013D30001791C121747900119E004F070A59001E0
:1013E30018E004F0809D7B017A01791C1217479065
:1013F300011BE004F0700690011AE004F0021310E0
:10080000020A71E86480F8E933E83360110460F0AB
:10081000ED33EC337009E8FCE9FDEAFEEBFF22045E
:1008200060DED3EB9FEA9EE99DE8C2E78CF0C2F759
:1008300095F0400CE8CCF8E9CDF9EACEFAEBCFFB25
:10084000120A3C85D0F05804700320D5B3E8047038
:10085000075002B2D5020A7B92D5EC0460F7E4CCD3
:10086000C0E0C398F8603B94186008400DD0E0FBEE
:10087000020A53E4FBFAC9FC8028E830E406E4C924
:10088000FBE4CAFCE830E305E4C9CACBFCE8540742
:100890006010F8C3E913F9EA13FAEB13FBEC13FC4D
:1008A000D8F130F52FC3E49CFCEF9BFFEE9AFEEDF0
:1008B00099FDD0E0FBEF4E4D4C701222DB03020A93
:1008C00078EC2CFCEF33FFEE33FEED33FDED30E73B
:1008D000EB020A53EF2BFFEE3AFEED39FDD0E0FBC1
:1008E00050130BBB0003020A7BED13FDEE13FEEF6A
:0808F00013FFEC13FC020A5394
:1008F800EC4D6011E8497017ED33EC3304600DE4FA
:10090800FCFFFEFD22E933E8330470F8020A711295
:100918000A3C58046009E4CC248150062850090296
:100928000A7B284003020A78C0E0EB4A7044B98089
:1009380006D0E0FB020A67EF4E701CBD8008EBFF93
:10094800EAFEE9FD80EBE98DF0A4FEE5F00209E19D
:10095800E9CDF9EAFEEBFFEF89F0A4FCE5F0CE89DA
:10096800F0A42EFFE435F0CD89F0A42DFEE435F097
:100978008067EF4E7005BD80D780C3EF8BF0A4ACC5
:10098800F0EE8BF0A42CFCE435F0F8EF8AF0A42C00
:10099800E5F038FCE433CB8DF0A42CFCE5F03BF813
:1009A800EE8AF0A42CFCE5F038F8E433CF89F0A403
:1009B8002CFCE5F038CF3400CE89F0A42FFFE5F009
:1009C8003EFEE433C98DF0A42EFEE5F039CD8AF061
:1009D800A42FFFE5F03EFEE43DFD33D0E0FB5007D9
:1009E8000BBB000F020A7BEC2CFCEF33FFEE33FE4F
:0609F800ED33FD020A537D
:1009FE0075F020800E75F010800575F0087D007E74
:100A0E00007F003392D530D503120D52EC334010D7
:100A1E00EF33FFEE33FEED33FDEC33FCD5F0ED227C
:0E0A2E00E5F0247EA2D513CC92E7CDCEFF22B8
:100E8000E5082440F582E43401F583E0050822906A
:100E9000013D300703900140E475F001120D6C0232
:100EA0000CD82000E97F2ED2008018EF540F249038
:100EB000D43440D4FF30040BEF24BFB41A005003E5
:100EC0002461FFE50960021509050CE50C700205B7
:100ED0000B30070E90013DE475F001120D6CEF022E
:100EE0000D1E0218267403D2078003E4C207F5081A
:100EF00090013D120D83E4F509F50BF50CE5096051
:100F0000077F20120EC380F5750AFFC201C200C21E
:100F100002C203C205C206C208120E8FFF700D3056
:100F200007057F00120ED4AF0CAE0B22B4255FC2B2
:100F3000D5C204120E8FFF24D0B40A00501A75F0E7
:100F40000A780930D50508B6FF0106C6A426F620A2
:100F5000D5047002D20380D924CFB41A00EF500414
:100F6000C2E5D2040211C6D20180C6D20080C0D22E
:100F70000280BCD2D580BAD20580B47F20120EC3C5
:100F80002002077401B5090040F1120E80FF120E15
:100F9000C3020EFDD208D2068095120E80FB120EFF
:100FA00080FA120E80F94A4B700679C47A127BFFE0
:100FB00020022EE509602A7E008E82758300120CC5
:100FC000F160060EEE650A70F0C2D5EBC0E0EAC033
:100FD000E0E9C0E0EE121227D0E0F9D0E0FAD0E06C
:100FE000FB120CD8FF60AAEBC0E0EAC0E0E9C0E069
:100FF000120EC3D0E02401F9D0E03400FAD0E0FBB7
:10100000E50A0460DCD50AD98087D20280A21212D8
:101010000960F7E50A700104120A86A90A600DE565
:101020000A600914F50A1212B1EF60F3EA30E70220
:10103000F404C3995079EAF4250A0430E701E40482
:10104000F50A800D12120960C1EA050A250A120A82
:1010500086EA90016CF030E701E4250A04D50A0421
:1010600020050114121227E4C0E01212B190016CA5
:10107000E0601320E70714F0120EAB802204F0D0DA
:10108000E014C0E07F00120EABE50A6007120EA26A
:10109000150A800B300503120EA2D0E0020EFDD01F
:1010A000E00480C4121209609EE50A04120A8690C8
:1010B000016CEAF0E50A2005026001042404121222
:0110C0002708
:1010C10074FF04C0E01212B1120EABE50A20050252
:1010D1006003120EA2D0E0B50AE87F45120EB5906A
:1010E100016CE07F2B30E7047F2DF404C0E0120E89
:1010F100C3D0E075F00A84C0F0120EACD0E0120E3D
:10110100AC020EFD791080027908C206C20880087F
:10111100D2D5790A8004790AC2D5E50A047002F5AC
:101121000AE4FAFDFEFF120E80FC7B082001131277
:101131000E80FD7B1030000A120E80FE120E80FF21
:101141007B20EC3382D592D55013C3E43000069F47
:10115100FFE49EFEE42001039DFDE49CFCE4CBF84A
:10116100C201EC700CCFCECDCCE824F8F870F3803E
:1011710017C3EF33FFEE33FEED33FDEC33FCEB33FE
:10118100FB994002FB0FD8E9EB300105F8D0E0C430
:1011910048B201C0E00AEC4D4E4F78207B0070C28E
:1011A100EAB50A0040BCC0E0121229D0F0D0E0201C
:1011B1000104C4C0E0C4B201C0F0120EACD0F0D53D
:1011C100F0EB020EFD120D8C0F9A531105580F6BA7
:1011D1004C0F674211094F1111441111490F8043FE
:1011E10011175510444610A445100E4712E4500F34
:1011F1006F2D0F732E0F962B0F77230F942012CD87
:101201002A0F2F4800000F8EE50AB4FF03750A0666
:10121100120E80FC120E80FD120E80FE120E80FF57
:10122100900165020AC3790AA2D520031430050989
:10123100B910020404B9080104A2D5200602500124
:10124100042002689202B509005034C0E07F2030CA
:1012510003197F30A20272067205500F121280C26A
:1012610002C206C205C2087F30800F300503E9C003
:10127100E0120EC3300503D0E0F9D0E0B509CC305F
:1012810005177F30B9100C120EC37F583004077F49
:10129100788003B90803120EC33002057F2D020EB8
:1012A100C37F202008F87F2B2006F322920280CFF3
:1012B1007F00B40700500B2465F582E43401F58307
:1012C100E0FF22286E756C6C2900D201120E80306D
:1012D10001F8C201780930D50108F6020F2F2D500F
:1012E100434958120E802403B405004001E49012D2
:1012F100DF93120EB4743A120EB4D20375090402CC
:021301001105D4
:100A3C00E9D2E7C933E833F892D5EDD2E7CD33EC00
:070A4C0033FC5002B2D52279
:100A5300EC30E7100FBF000C0EBE00080DBD000404
:100A63000BEB6014A2D5EB13FCED92E7FD2274FFB0
:100A7300FCFDFEFF22E480F8A2D574FF13FC7D8009
:030A8300E480EF1D
:100A8600F920E73624F950037907E4F42402FBE55C
:100A960082158270021583DBF6E024FB501BE960A9
:100AA60014E4F0E582158270021583E004F0B40ABE
:0D0AB60008E4F0D9EE7401F00A22C2D52246
:100AC300ED33EC3392D5FA602AB4FF33EDC2E77B02
:100AD300FF60067A0A79E8E4227A0A79F120D504DC
:100AE3007A0A79EC224E614E002B494E46002D497D
:100AF3004E4600E47A08F0A3DAFC7B00740722C0B8
:100B030083C082ECC0E0EDC0E0EEC0E0EFC0E0EAFD
:100B130075F010A4CAABF075F04DA42BFBE435F0CF
:100B2300FCEA2410FAEB34C5FBEC34D9FCEDC2E744
:100B3300FF75F056A4F42411C5F0F434C58FF0A466
:100B43002AE5F03BE43CF020E714120C98D0E0FFD8
:100B5300D0E0FED0E0FDD0E0FC120BCB8014F40417
:100B6300120C98D0E0FFD0E0FED0E0FDD0E0FC1204
:100B730008F8D082D083E0FAEDD2E7CD33EC33240A
:100B830082FBE4C3CF33CFCE33CECD33CD33DBF3D0
:100B93007B0775F00A846004F0A31B0AE5F0F0A359
:100BA3008FF0740AA4FFACF08EF0740AA42CFEAC90
:100BB300F050010C8DF0740AA42CFDE435F0F0A381
:050BC300DBDE740722D7
:100BC800020A7BEC5D046005E859047003020A71AF
:100BD800120A3C580460F6EC4860F2EC7004FDFE22
:100BE800FF22C860DB2481C85009C3986002500600
:100BF800020A789850CAF582E9294B4A7005AB82F7
:100C0800020A6775F0007C1A7880C3EF9BEE9AEDB4
:100C180099400DC3EF9BFFEE9AFEED99FDE842F077
:100C2800DC23ACF0D0E0FFD0E0FED0E0FDAB8220CA
:100C3800E7101BEB60BAEC2CFCEF33FFEE33FEED54
:100C480033FD020A53E803F830E705C0F075F000F9
:100C5800EF2FFFEE33FEED33FD40B830E7C280AA38
:100C68003F8000004120000042C80000447A000094
:100C7800461C400047C35000497424004B18968016
:100C88004CBEBC205A0E1BCA6753C21C749DC5AE0D
:100C9800FB60065407601C2323120CC6EB54386013
:100CA80009120CB2120CC11208F8ECF8EDF9EEFAC0
:100CB800EFCB22EB120CC180F1543803241C900CAA
:100CC80068FE93FC0EEE93FD0EEE930ECE93FF227C
:1014AA00021303E493A3F8E493A34003F68001F242
:1014BA0008DFF48029E493A3F85407240CC8C33343
:1014CA00C4540F4420C8834004F456800146F6DF12
:1014DA00E4800B01020408102040809015FCE47E91
:1014EA00019360BCA3FF543F30E509541FFEE49307
:1014FA00A360010ECF54C025E060A840B8E493A3CE
:10150A00FAE493A3F8E493A3C8C582C8CAC583CAF8
:10151A00F0A3C8C582C8CAC583CADFE9DEE780BEB0
:01164B00009E
:100CD800BB010689828A83E0225002E722BBFE021A
:090CE800E32289828A83E493224D
:100CF100BB010CE58229F582E5833AF583E02250B8
:100D010006E92582F8E622BBFE06E92582F8E22201
:0D0D1100E58229F582E5833AF583E493221B
:100D1E00BB010689828A83F0225002F722BBFE01B4
:020D2E00F322AE
:100D3000F8BB010DE58229F582E5833AF583E8F0F9
:100D4000225006E92582C8F622BBFE05E92582C8A5
:020D5000F2228D
:10169100C2D5E830E70FB2D5E4C39BFBE49AFAE484
:1016A10099F9E498F8EC30E717B2D51216C7120D84
:1016B100EEE4C39BFBE49AFAE499F9E498F8800319
:1016C100120DEE30D50DE4C39FFFE49EFEE49DFDB7
:0416D100E49CFC2277
:0E0D5200C3E49FFFE49EFEE49DFDE49CFC22B2
:0C0D6000ECF0A3EDF0A3EEF0A3EFF02206
:100D6C00F8E0FBA3A3E0F925F0F0E5821582700210
:070D7C001583E0FA38F022B4
:090D8300EBF0A3EAF0A3E9F02271
:100D8C00D083D082F8E4937012740193700DA3A3F6
:100D9C0093F8740193F5828883E47374029368600A
:060DAC00EFA3A3A380DF0A
:10182600EFB40A07740D121831740A309811A8998A
:10183600B8130CC2983098FDA899C298B811F63022
:0718460099FDC299F59922FA
:100DB20075F008758200EF2FFFEE33FECD33CDCCF8
:100DC20033CCC58233C5829BED9AEC99E58298407B
:100DD2000CF582EE9BFEED9AFDEC99FC0FD5F0D658
:100DE200E4CEFBE4CDFAE4CCF9A88222B800C1B982
:100DF2000059BA002DEC8BF084CFCECDFCE5F0CBC0
:100E0200F97818EF2FFFEE33FEED33FDEC33FCEBF8
:100E120033FB10D703994004EB99FB0FD8E5E4F9B3
:100E2200FA227818EF2FFFEE33FEED33FDEC33FCA0
:100E3200C933C910D7059BE99A4007EC9BFCE99A94
:100E4200F90FD8E0E4C9FAE4CCFB2275F010EF2FD9
:100E5200FFEE33FEED33FDCC33CCC833C810D707D9
:100E62009BEC9AE899400AED9BFDEC9AFCE899F814
:0E0E72000FD5F0DAE4CDFBE4CCFAE4C8F922A7
:00000001FF
